{
  "contractName": "SmartContract",
  "abi": [
    {
      "inputs": [
        {
          "internalType": "string",
          "name": "_name",
          "type": "string"
        },
        {
          "internalType": "string",
          "name": "_symbol",
          "type": "string"
        },
        {
          "internalType": "string",
          "name": "_initBaseURI",
          "type": "string"
        },
        {
          "internalType": "string",
          "name": "_initNotRevealedUri",
          "type": "string"
        }
      ],
      "stateMutability": "nonpayable",
      "type": "constructor"
    },
    {
      "anonymous": false,
      "inputs": [
        {
          "indexed": true,
          "internalType": "address",
          "name": "owner",
          "type": "address"
        },
        {
          "indexed": true,
          "internalType": "address",
          "name": "approved",
          "type": "address"
        },
        {
          "indexed": true,
          "internalType": "uint256",
          "name": "tokenId",
          "type": "uint256"
        }
      ],
      "name": "Approval",
      "type": "event"
    },
    {
      "anonymous": false,
      "inputs": [
        {
          "indexed": true,
          "internalType": "address",
          "name": "owner",
          "type": "address"
        },
        {
          "indexed": true,
          "internalType": "address",
          "name": "operator",
          "type": "address"
        },
        {
          "indexed": false,
          "internalType": "bool",
          "name": "approved",
          "type": "bool"
        }
      ],
      "name": "ApprovalForAll",
      "type": "event"
    },
    {
      "anonymous": false,
      "inputs": [
        {
          "indexed": true,
          "internalType": "address",
          "name": "previousOwner",
          "type": "address"
        },
        {
          "indexed": true,
          "internalType": "address",
          "name": "newOwner",
          "type": "address"
        }
      ],
      "name": "OwnershipTransferred",
      "type": "event"
    },
    {
      "anonymous": false,
      "inputs": [
        {
          "indexed": true,
          "internalType": "address",
          "name": "from",
          "type": "address"
        },
        {
          "indexed": true,
          "internalType": "address",
          "name": "to",
          "type": "address"
        },
        {
          "indexed": true,
          "internalType": "uint256",
          "name": "tokenId",
          "type": "uint256"
        }
      ],
      "name": "Transfer",
      "type": "event"
    },
    {
      "inputs": [
        {
          "internalType": "address",
          "name": "to",
          "type": "address"
        },
        {
          "internalType": "uint256",
          "name": "tokenId",
          "type": "uint256"
        }
      ],
      "name": "approve",
      "outputs": [],
      "stateMutability": "nonpayable",
      "type": "function"
    },
    {
      "inputs": [
        {
          "internalType": "address",
          "name": "owner",
          "type": "address"
        }
      ],
      "name": "balanceOf",
      "outputs": [
        {
          "internalType": "uint256",
          "name": "",
          "type": "uint256"
        }
      ],
      "stateMutability": "view",
      "type": "function"
    },
    {
      "inputs": [],
      "name": "baseExtension",
      "outputs": [
        {
          "internalType": "string",
          "name": "",
          "type": "string"
        }
      ],
      "stateMutability": "view",
      "type": "function"
    },
    {
      "inputs": [],
      "name": "baseURI",
      "outputs": [
        {
          "internalType": "string",
          "name": "",
          "type": "string"
        }
      ],
      "stateMutability": "view",
      "type": "function"
    },
    {
      "inputs": [],
      "name": "cost",
      "outputs": [
        {
          "internalType": "uint256",
          "name": "",
          "type": "uint256"
        }
      ],
      "stateMutability": "view",
      "type": "function"
    },
    {
      "inputs": [
        {
          "internalType": "uint256",
          "name": "tokenId",
          "type": "uint256"
        }
      ],
      "name": "getApproved",
      "outputs": [
        {
          "internalType": "address",
          "name": "",
          "type": "address"
        }
      ],
      "stateMutability": "view",
      "type": "function"
    },
    {
      "inputs": [
        {
          "internalType": "address",
          "name": "owner",
          "type": "address"
        },
        {
          "internalType": "address",
          "name": "operator",
          "type": "address"
        }
      ],
      "name": "isApprovedForAll",
      "outputs": [
        {
          "internalType": "bool",
          "name": "",
          "type": "bool"
        }
      ],
      "stateMutability": "view",
      "type": "function"
    },
    {
      "inputs": [],
      "name": "maxMintAmount",
      "outputs": [
        {
          "internalType": "uint256",
          "name": "",
          "type": "uint256"
        }
      ],
      "stateMutability": "view",
      "type": "function"
    },
    {
      "inputs": [],
      "name": "maxSupply",
      "outputs": [
        {
          "internalType": "uint256",
          "name": "",
          "type": "uint256"
        }
      ],
      "stateMutability": "view",
      "type": "function"
    },
    {
      "inputs": [],
      "name": "name",
      "outputs": [
        {
          "internalType": "string",
          "name": "",
          "type": "string"
        }
      ],
      "stateMutability": "view",
      "type": "function"
    },
    {
      "inputs": [],
      "name": "nftPerAddressLimitFreeL",
      "outputs": [
        {
          "internalType": "uint256",
          "name": "",
          "type": "uint256"
        }
      ],
      "stateMutability": "view",
      "type": "function"
    },
    {
      "inputs": [],
      "name": "nftPerAddressLimitFreeO",
      "outputs": [
        {
          "internalType": "uint256",
          "name": "",
          "type": "uint256"
        }
      ],
      "stateMutability": "view",
      "type": "function"
    },
    {
      "inputs": [],
      "name": "nftPerAddressLimitFreePublic",
      "outputs": [
        {
          "internalType": "uint256",
          "name": "",
          "type": "uint256"
        }
      ],
      "stateMutability": "view",
      "type": "function"
    },
    {
      "inputs": [],
      "name": "nftPerAddressLimitL",
      "outputs": [
        {
          "internalType": "uint256",
          "name": "",
          "type": "uint256"
        }
      ],
      "stateMutability": "view",
      "type": "function"
    },
    {
      "inputs": [],
      "name": "nftPerAddressLimitO",
      "outputs": [
        {
          "internalType": "uint256",
          "name": "",
          "type": "uint256"
        }
      ],
      "stateMutability": "view",
      "type": "function"
    },
    {
      "inputs": [],
      "name": "nftPerAddressLimitPublic",
      "outputs": [
        {
          "internalType": "uint256",
          "name": "",
          "type": "uint256"
        }
      ],
      "stateMutability": "view",
      "type": "function"
    },
    {
      "inputs": [],
      "name": "notRevealedUri",
      "outputs": [
        {
          "internalType": "string",
          "name": "",
          "type": "string"
        }
      ],
      "stateMutability": "view",
      "type": "function"
    },
    {
      "inputs": [],
      "name": "onlyWhiteListed",
      "outputs": [
        {
          "internalType": "bool",
          "name": "",
          "type": "bool"
        }
      ],
      "stateMutability": "view",
      "type": "function"
    },
    {
      "inputs": [],
      "name": "owner",
      "outputs": [
        {
          "internalType": "address",
          "name": "",
          "type": "address"
        }
      ],
      "stateMutability": "view",
      "type": "function"
    },
    {
      "inputs": [
        {
          "internalType": "uint256",
          "name": "tokenId",
          "type": "uint256"
        }
      ],
      "name": "ownerOf",
      "outputs": [
        {
          "internalType": "address",
          "name": "",
          "type": "address"
        }
      ],
      "stateMutability": "view",
      "type": "function"
    },
    {
      "inputs": [],
      "name": "paused",
      "outputs": [
        {
          "internalType": "bool",
          "name": "",
          "type": "bool"
        }
      ],
      "stateMutability": "view",
      "type": "function"
    },
    {
      "inputs": [],
      "name": "renounceOwnership",
      "outputs": [],
      "stateMutability": "nonpayable",
      "type": "function"
    },
    {
      "inputs": [],
      "name": "revealed",
      "outputs": [
        {
          "internalType": "bool",
          "name": "",
          "type": "bool"
        }
      ],
      "stateMutability": "view",
      "type": "function"
    },
    {
      "inputs": [
        {
          "internalType": "address",
          "name": "from",
          "type": "address"
        },
        {
          "internalType": "address",
          "name": "to",
          "type": "address"
        },
        {
          "internalType": "uint256",
          "name": "tokenId",
          "type": "uint256"
        }
      ],
      "name": "safeTransferFrom",
      "outputs": [],
      "stateMutability": "nonpayable",
      "type": "function"
    },
    {
      "inputs": [
        {
          "internalType": "address",
          "name": "from",
          "type": "address"
        },
        {
          "internalType": "address",
          "name": "to",
          "type": "address"
        },
        {
          "internalType": "uint256",
          "name": "tokenId",
          "type": "uint256"
        },
        {
          "internalType": "bytes",
          "name": "_data",
          "type": "bytes"
        }
      ],
      "name": "safeTransferFrom",
      "outputs": [],
      "stateMutability": "nonpayable",
      "type": "function"
    },
    {
      "inputs": [
        {
          "internalType": "address",
          "name": "operator",
          "type": "address"
        },
        {
          "internalType": "bool",
          "name": "approved",
          "type": "bool"
        }
      ],
      "name": "setApprovalForAll",
      "outputs": [],
      "stateMutability": "nonpayable",
      "type": "function"
    },
    {
      "inputs": [
        {
          "internalType": "bytes4",
          "name": "interfaceId",
          "type": "bytes4"
        }
      ],
      "name": "supportsInterface",
      "outputs": [
        {
          "internalType": "bool",
          "name": "",
          "type": "bool"
        }
      ],
      "stateMutability": "view",
      "type": "function"
    },
    {
      "inputs": [],
      "name": "symbol",
      "outputs": [
        {
          "internalType": "string",
          "name": "",
          "type": "string"
        }
      ],
      "stateMutability": "view",
      "type": "function"
    },
    {
      "inputs": [
        {
          "internalType": "uint256",
          "name": "index",
          "type": "uint256"
        }
      ],
      "name": "tokenByIndex",
      "outputs": [
        {
          "internalType": "uint256",
          "name": "",
          "type": "uint256"
        }
      ],
      "stateMutability": "view",
      "type": "function"
    },
    {
      "inputs": [
        {
          "internalType": "address",
          "name": "owner",
          "type": "address"
        },
        {
          "internalType": "uint256",
          "name": "index",
          "type": "uint256"
        }
      ],
      "name": "tokenOfOwnerByIndex",
      "outputs": [
        {
          "internalType": "uint256",
          "name": "",
          "type": "uint256"
        }
      ],
      "stateMutability": "view",
      "type": "function"
    },
    {
      "inputs": [],
      "name": "totalSupply",
      "outputs": [
        {
          "internalType": "uint256",
          "name": "",
          "type": "uint256"
        }
      ],
      "stateMutability": "view",
      "type": "function"
    },
    {
      "inputs": [
        {
          "internalType": "address",
          "name": "from",
          "type": "address"
        },
        {
          "internalType": "address",
          "name": "to",
          "type": "address"
        },
        {
          "internalType": "uint256",
          "name": "tokenId",
          "type": "uint256"
        }
      ],
      "name": "transferFrom",
      "outputs": [],
      "stateMutability": "nonpayable",
      "type": "function"
    },
    {
      "inputs": [
        {
          "internalType": "address",
          "name": "newOwner",
          "type": "address"
        }
      ],
      "name": "transferOwnership",
      "outputs": [],
      "stateMutability": "nonpayable",
      "type": "function"
    },
    {
      "inputs": [
        {
          "internalType": "uint256",
          "name": "",
          "type": "uint256"
        }
      ],
      "name": "whitelistedAddressesL",
      "outputs": [
        {
          "internalType": "address",
          "name": "",
          "type": "address"
        }
      ],
      "stateMutability": "view",
      "type": "function"
    },
    {
      "inputs": [
        {
          "internalType": "uint256",
          "name": "",
          "type": "uint256"
        }
      ],
      "name": "whitelistedAddressesO",
      "outputs": [
        {
          "internalType": "address",
          "name": "",
          "type": "address"
        }
      ],
      "stateMutability": "view",
      "type": "function"
    },
    {
      "inputs": [
        {
          "internalType": "uint256",
          "name": "_mintAmount",
          "type": "uint256"
        }
      ],
      "name": "mint",
      "outputs": [],
      "stateMutability": "payable",
      "type": "function"
    },
    {
      "inputs": [
        {
          "internalType": "address",
          "name": "_user",
          "type": "address"
        }
      ],
      "name": "isWhiteListedO",
      "outputs": [
        {
          "internalType": "bool",
          "name": "",
          "type": "bool"
        }
      ],
      "stateMutability": "view",
      "type": "function"
    },
    {
      "inputs": [
        {
          "internalType": "address",
          "name": "_user",
          "type": "address"
        }
      ],
      "name": "isWhiteListedL",
      "outputs": [
        {
          "internalType": "bool",
          "name": "",
          "type": "bool"
        }
      ],
      "stateMutability": "view",
      "type": "function"
    },
    {
      "inputs": [
        {
          "internalType": "address",
          "name": "_owner",
          "type": "address"
        }
      ],
      "name": "walletOfOwner",
      "outputs": [
        {
          "internalType": "uint256[]",
          "name": "",
          "type": "uint256[]"
        }
      ],
      "stateMutability": "view",
      "type": "function"
    },
    {
      "inputs": [
        {
          "internalType": "uint256",
          "name": "tokenId",
          "type": "uint256"
        }
      ],
      "name": "tokenURI",
      "outputs": [
        {
          "internalType": "string",
          "name": "",
          "type": "string"
        }
      ],
      "stateMutability": "view",
      "type": "function"
    },
    {
      "inputs": [],
      "name": "reveal",
      "outputs": [],
      "stateMutability": "nonpayable",
      "type": "function"
    },
    {
      "inputs": [
        {
          "internalType": "uint256",
          "name": "_newCost",
          "type": "uint256"
        }
      ],
      "name": "setCost",
      "outputs": [],
      "stateMutability": "nonpayable",
      "type": "function"
    },
    {
      "inputs": [
        {
          "internalType": "uint256",
          "name": "_newmaxMintAmount",
          "type": "uint256"
        }
      ],
      "name": "setmaxMintAmount",
      "outputs": [],
      "stateMutability": "nonpayable",
      "type": "function"
    },
    {
      "inputs": [
        {
          "internalType": "string",
          "name": "_notRevealedURI",
          "type": "string"
        }
      ],
      "name": "setNotRevealedURI",
      "outputs": [],
      "stateMutability": "nonpayable",
      "type": "function"
    },
    {
      "inputs": [
        {
          "internalType": "string",
          "name": "_newBaseURI",
          "type": "string"
        }
      ],
      "name": "setBaseURI",
      "outputs": [],
      "stateMutability": "nonpayable",
      "type": "function"
    },
    {
      "inputs": [
        {
          "internalType": "string",
          "name": "_newBaseExtension",
          "type": "string"
        }
      ],
      "name": "setBaseExtension",
      "outputs": [],
      "stateMutability": "nonpayable",
      "type": "function"
    },
    {
      "inputs": [
        {
          "internalType": "bool",
          "name": "_state",
          "type": "bool"
        }
      ],
      "name": "pause",
      "outputs": [],
      "stateMutability": "nonpayable",
      "type": "function"
    },
    {
      "inputs": [
        {
          "internalType": "bool",
          "name": "_state",
          "type": "bool"
        }
      ],
      "name": "setOnlyWhiteListed",
      "outputs": [],
      "stateMutability": "nonpayable",
      "type": "function"
    },
    {
      "inputs": [
        {
          "internalType": "address[]",
          "name": "_user",
          "type": "address[]"
        }
      ],
      "name": "whitelistUsersO",
      "outputs": [],
      "stateMutability": "nonpayable",
      "type": "function"
    },
    {
      "inputs": [
        {
          "internalType": "address[]",
          "name": "_user",
          "type": "address[]"
        }
      ],
      "name": "whitelistUsersl",
      "outputs": [],
      "stateMutability": "nonpayable",
      "type": "function"
    },
    {
      "inputs": [],
      "name": "withdraw",
      "outputs": [],
      "stateMutability": "payable",
      "type": "function"
    }
  ],
  "bytecode": "0x60c06040526005608081905264173539b7b760d91b60a09081526200002891600c919062000239565b506502ba7def3000600d55610d05600e556003600f8190556010805461ffff191690556014805460ff191660019081179091556015829055600260165560178290556018829055601955601a553480156200008257600080fd5b506040516200349038038062003490833981016040819052620000a59162000392565b835184908490620000be90600090602085019062000239565b508051620000d490600190602084019062000239565b505050620000f1620000eb6200011160201b60201c565b62000115565b620000fc8262000167565b6200010781620001cf565b50505050620004ce565b3390565b600a80546001600160a01b038381166001600160a01b0319831681179093556040519116919082907f8be0079c531659141344cd1fd0a4f28419497f9722a3daafe3b4186f6b6457e090600090a35050565b6200017162000111565b6001600160a01b0316620001846200022a565b6001600160a01b031614620001b65760405162461bcd60e51b8152600401620001ad9062000446565b60405180910390fd5b8051620001cb90600b90602084019062000239565b5050565b620001d962000111565b6001600160a01b0316620001ec6200022a565b6001600160a01b031614620002155760405162461bcd60e51b8152600401620001ad9062000446565b8051620001cb90601190602084019062000239565b600a546001600160a01b031690565b82805462000247906200047b565b90600052602060002090601f0160209004810192826200026b5760008555620002b6565b82601f106200028657805160ff1916838001178555620002b6565b82800160010185558215620002b6579182015b82811115620002b657825182559160200191906001019062000299565b50620002c4929150620002c8565b5090565b5b80821115620002c45760008155600101620002c9565b600082601f830112620002f0578081fd5b81516001600160401b03808211156200030d576200030d620004b8565b604051601f8301601f19908116603f01168101908282118183101715620003385762000338620004b8565b8160405283815260209250868385880101111562000354578485fd5b8491505b8382101562000377578582018301518183018401529082019062000358565b838211156200038857848385830101525b9695505050505050565b60008060008060808587031215620003a8578384fd5b84516001600160401b0380821115620003bf578586fd5b620003cd88838901620002df565b95506020870151915080821115620003e3578485fd5b620003f188838901620002df565b9450604087015191508082111562000407578384fd5b6200041588838901620002df565b935060608701519150808211156200042b578283fd5b506200043a87828801620002df565b91505092959194509250565b6020808252818101527f4f776e61626c653a2063616c6c6572206973206e6f7420746865206f776e6572604082015260600190565b6002810460018216806200049057607f821691505b60208210811415620004b257634e487b7160e01b600052602260045260246000fd5b50919050565b634e487b7160e01b600052604160045260246000fd5b612fb280620004de6000396000f3fe6080604052600436106102e45760003560e01c806370a0823111610190578063bd571133116100dc578063dd18776111610095578063e5fcbf2f1161006f578063e5fcbf2f14610809578063e985e9c514610829578063f2c4ce1e14610849578063f2fde38b14610869576102e4565b8063dd187761146107b4578063dee36310146107d4578063e53aabd8146107f4576102e4565b8063bd5711331461070a578063c6482d6a1461072a578063c66828621461074a578063c87b56dd1461075f578063d5abeb011461077f578063da3ef23f14610794576102e4565b806395d89b4111610149578063a475907411610123578063a4759074146106a0578063a475b5dd146106b5578063b0328378146106ca578063b88d4fde146106ea576102e4565b806395d89b4114610658578063a0712d681461066d578063a22cb46514610680576102e4565b806370a08231146105c4578063715018a6146105e45780637f00c7a6146105f957806385a9f4ba14610619578063885bf15c1461062e5780638da5cb5b14610643576102e4565b806340637d561161024f57806351830227116102085780635c975abb116101e25780635c975abb1461055a5780636352211e1461056f5780636397062b1461058f5780636c0360eb146105af576102e4565b8063518302271461051057806351c7a89c1461052557806355f804b31461053a576102e4565b806340637d561461045957806342842e0e1461046e578063438b63001461048e57806344a0d68a146104bb57806349456546146104db5780634f6ccce7146104f0576102e4565b806313faede6116102a157806313faede6146103c557806318160ddd146103e7578063239c70ae146103fc57806323b872dd146104115780632f745c59146104315780633ccfd60b14610451576102e4565b806301ffc9a7146102e957806302329a291461031f57806306fdde0314610341578063081812fc14610363578063081c8c4414610390578063095ea7b3146103a5575b600080fd5b3480156102f557600080fd5b5061030961030436600461260b565b610889565b6040516103169190612827565b60405180910390f35b34801561032b57600080fd5b5061033f61033a3660046125f1565b6108b6565b005b34801561034d57600080fd5b50610356610911565b6040516103169190612832565b34801561036f57600080fd5b5061038361037e366004612689565b6109a3565b6040516103169190612792565b34801561039c57600080fd5b506103566109e6565b3480156103b157600080fd5b5061033f6103c0366004612559565b610a74565b3480156103d157600080fd5b506103da610b0c565b6040516103169190612e17565b3480156103f357600080fd5b506103da610b12565b34801561040857600080fd5b506103da610b18565b34801561041d57600080fd5b5061033f61042c36600461247c565b610b1e565b34801561043d57600080fd5b506103da61044c366004612559565b610b56565b61033f610ba8565b34801561046557600080fd5b506103da610c5a565b34801561047a57600080fd5b5061033f61048936600461247c565b610c60565b34801561049a57600080fd5b506104ae6104a9366004612430565b610c7b565b60405161031691906127e3565b3480156104c757600080fd5b5061033f6104d6366004612689565b610d39565b3480156104e757600080fd5b506103da610d7d565b3480156104fc57600080fd5b506103da61050b366004612689565b610d83565b34801561051c57600080fd5b50610309610dde565b34801561053157600080fd5b506103da610dec565b34801561054657600080fd5b5061033f610555366004612643565b610df2565b34801561056657600080fd5b50610309610e48565b34801561057b57600080fd5b5061038361058a366004612689565b610e51565b34801561059b57600080fd5b506103096105aa366004612430565b610e86565b3480156105bb57600080fd5b50610356610eff565b3480156105d057600080fd5b506103da6105df366004612430565b610f0c565b3480156105f057600080fd5b5061033f610f50565b34801561060557600080fd5b5061033f610614366004612689565b610f9b565b34801561062557600080fd5b506103da610fdf565b34801561063a57600080fd5b506103da610fe5565b34801561064f57600080fd5b50610383610feb565b34801561066457600080fd5b50610356610ffa565b61033f61067b366004612689565b611009565b34801561068c57600080fd5b5061033f61069b366004612530565b6113e4565b3480156106ac57600080fd5b506103096113f6565b3480156106c157600080fd5b5061033f6113ff565b3480156106d657600080fd5b5061033f6106e53660046125f1565b61144f565b3480156106f657600080fd5b5061033f6107053660046124b7565b6114a1565b34801561071657600080fd5b50610309610725366004612430565b6114da565b34801561073657600080fd5b5061033f610745366004612582565b61154a565b34801561075657600080fd5b506103566115a1565b34801561076b57600080fd5b5061035661077a366004612689565b6115ae565b34801561078b57600080fd5b506103da6116d5565b3480156107a057600080fd5b5061033f6107af366004612643565b6116db565b3480156107c057600080fd5b506103836107cf366004612689565b61172d565b3480156107e057600080fd5b5061033f6107ef366004612582565b611757565b34801561080057600080fd5b506103da6117ae565b34801561081557600080fd5b50610383610824366004612689565b6117b4565b34801561083557600080fd5b5061030961084436600461244a565b6117c4565b34801561085557600080fd5b5061033f610864366004612643565b6117f2565b34801561087557600080fd5b5061033f610884366004612430565b611844565b60006001600160e01b0319821663780e9d6360e01b14806108ae57506108ae826118b2565b90505b919050565b6108be6118f2565b6001600160a01b03166108cf610feb565b6001600160a01b0316146108fe5760405162461bcd60e51b81526004016108f590612cb5565b60405180910390fd5b6010805460ff1916911515919091179055565b60606000805461092090612eba565b80601f016020809104026020016040519081016040528092919081815260200182805461094c90612eba565b80156109995780601f1061096e57610100808354040283529160200191610999565b820191906000526020600020905b81548152906001019060200180831161097c57829003601f168201915b5050505050905090565b60006109ae826118f6565b6109ca5760405162461bcd60e51b81526004016108f590612c69565b506000908152600460205260409020546001600160a01b031690565b601180546109f390612eba565b80601f0160208091040260200160405190810160405280929190818152602001828054610a1f90612eba565b8015610a6c5780601f10610a4157610100808354040283529160200191610a6c565b820191906000526020600020905b815481529060010190602001808311610a4f57829003601f168201915b505050505081565b6000610a7f82610e51565b9050806001600160a01b0316836001600160a01b03161415610ab35760405162461bcd60e51b81526004016108f590612d39565b806001600160a01b0316610ac56118f2565b6001600160a01b03161480610ae15750610ae1816108446118f2565b610afd5760405162461bcd60e51b81526004016108f590612b44565b610b078383611913565b505050565b600d5481565b60085490565b600f5481565b610b2f610b296118f2565b82611981565b610b4b5760405162461bcd60e51b81526004016108f590612d7a565b610b07838383611a06565b6000610b6183610f0c565b8210610b7f5760405162461bcd60e51b81526004016108f59061287c565b506001600160a01b03919091166000908152600660209081526040808320938352929052205490565b610bb06118f2565b6001600160a01b0316610bc1610feb565b6001600160a01b031614610be75760405162461bcd60e51b81526004016108f590612cb5565b6000610bf1610feb565b6001600160a01b031647604051610c079061278f565b60006040518083038185875af1925050503d8060008114610c44576040519150601f19603f3d011682016040523d82523d6000602084013e610c49565b606091505b5050905080610c5757600080fd5b50565b60175481565b610b07838383604051806020016040528060008152506114a1565b60606000610c8883610f0c565b905060008167ffffffffffffffff811115610cb357634e487b7160e01b600052604160045260246000fd5b604051908082528060200260200182016040528015610cdc578160200160208202803683370190505b50905060005b82811015610d3157610cf48582610b56565b828281518110610d1457634e487b7160e01b600052603260045260246000fd5b602090810291909101015280610d2981612ef5565b915050610ce2565b509392505050565b610d416118f2565b6001600160a01b0316610d52610feb565b6001600160a01b031614610d785760405162461bcd60e51b81526004016108f590612cb5565b600d55565b60155481565b6000610d8d610b12565b8210610dab5760405162461bcd60e51b81526004016108f590612dcb565b60088281548110610dcc57634e487b7160e01b600052603260045260246000fd5b90600052602060002001549050919050565b601054610100900460ff1681565b60195481565b610dfa6118f2565b6001600160a01b0316610e0b610feb565b6001600160a01b031614610e315760405162461bcd60e51b81526004016108f590612cb5565b8051610e4490600b906020840190612289565b5050565b60105460ff1681565b6000818152600260205260408120546001600160a01b0316806108ae5760405162461bcd60e51b81526004016108f590612beb565b6000805b601254811015610ef657826001600160a01b031660128281548110610ebf57634e487b7160e01b600052603260045260246000fd5b6000918252602090912001546001600160a01b03161415610ee45760019150506108b1565b80610eee81612ef5565b915050610e8a565b50600092915050565b600b80546109f390612eba565b60006001600160a01b038216610f345760405162461bcd60e51b81526004016108f590612ba1565b506001600160a01b031660009081526003602052604090205490565b610f586118f2565b6001600160a01b0316610f69610feb565b6001600160a01b031614610f8f5760405162461bcd60e51b81526004016108f590612cb5565b610f996000611b39565b565b610fa36118f2565b6001600160a01b0316610fb4610feb565b6001600160a01b031614610fda5760405162461bcd60e51b81526004016108f590612cb5565b600f55565b60165481565b601a5481565b600a546001600160a01b031690565b60606001805461092090612eba565b60105460ff161561101957600080fd5b6000611023610b12565b90506000821161103257600080fd5b600f5482111561104157600080fd5b600e5461104e8383612e2c565b111561105957600080fd5b600f548261106633610f0c565b6110709190612e2c565b111561107b57600080fd5b60145460ff161515600114156112ef5761109433610e86565b156111c0576110a233610e86565b6110be5760405162461bcd60e51b81526004016108f590612845565b60006110c933610f0c565b905060175481106110d957600080fd5b6000816015546110e99190612e77565b90508084116111275760015b8481116111215761110f3361110a8387612e2c565b611b8b565b8061111981612ef5565b9150506110f5565b506111b9565b60015b8181116111515761113f3361110a8387612e2c565b8061114981612ef5565b91505061112a565b50600061115d33610f0c565b905060008160175461116f9190612e77565b9050600d548161117f9190612e58565b34101561118b57600080fd5b60015b8181116111b5576111a33361110a8389612e2c565b806111ad81612ef5565b91505061118e565b5050505b50506112ea565b6111c9336114da565b156112d2576111d7336114da565b6111f35760405162461bcd60e51b81526004016108f590612b0d565b60006111fe33610f0c565b905060185481106112215760405162461bcd60e51b81526004016108f590612980565b6000816016546112319190612e77565b90508084116112645760015b848111611121576112523361110a8387612e2c565b8061125c81612ef5565b91505061123d565b60006112708286612e77565b9050600d54816112809190612e58565b34101561129f5760405162461bcd60e51b81526004016108f590612919565b60015b8581116112c9576112b73361110a8388612e2c565b806112c181612ef5565b9150506112a2565b505050506112ea565b60405162461bcd60e51b81526004016108f590612a9d565b610e44565b60006112fa33610f0c565b9050601a54811061131d5760405162461bcd60e51b81526004016108f590612980565b6000816019541161132f57600061133d565b8160195461133d9190612e77565b90508084116113765760015b8481116113705761135e3361110a8387612e2c565b8061136881612ef5565b915050611349565b506113de565b60006113828286612e77565b9050600d54816113929190612e58565b3410156113b15760405162461bcd60e51b81526004016108f590612919565b60015b8581116113db576113c93361110a8388612e2c565b806113d381612ef5565b9150506113b4565b50505b50505050565b610e446113ef6118f2565b8383611ba5565b60145460ff1681565b6114076118f2565b6001600160a01b0316611418610feb565b6001600160a01b03161461143e5760405162461bcd60e51b81526004016108f590612cb5565b6010805461ff001916610100179055565b6114576118f2565b6001600160a01b0316611468610feb565b6001600160a01b03161461148e5760405162461bcd60e51b81526004016108f590612cb5565b6014805460ff1916911515919091179055565b6114b26114ac6118f2565b83611981565b6114ce5760405162461bcd60e51b81526004016108f590612d7a565b6113de84848484611c48565b6000805b601354811015610ef657826001600160a01b03166013828154811061151357634e487b7160e01b600052603260045260246000fd5b6000918252602090912001546001600160a01b031614156115385760019150506108b1565b8061154281612ef5565b9150506114de565b6115526118f2565b6001600160a01b0316611563610feb565b6001600160a01b0316146115895760405162461bcd60e51b81526004016108f590612cb5565b6115956013600061230d565b610b076013838361232b565b600c80546109f390612eba565b60606115b9826118f6565b6115d55760405162461bcd60e51b81526004016108f590612cea565b601054610100900460ff1661167657601180546115f190612eba565b80601f016020809104026020016040519081016040528092919081815260200182805461161d90612eba565b801561166a5780601f1061163f5761010080835404028352916020019161166a565b820191906000526020600020905b81548152906001019060200180831161164d57829003601f168201915b505050505090506108b1565b6000611680611c7b565b905060008151116116a057604051806020016040528060008152506116ce565b806116aa84611c8a565b600c6040516020016116be939291906126cd565b6040516020818303038152906040525b9392505050565b600e5481565b6116e36118f2565b6001600160a01b03166116f4610feb565b6001600160a01b03161461171a5760405162461bcd60e51b81526004016108f590612cb5565b8051610e4490600c906020840190612289565b6012818154811061173d57600080fd5b6000918252602090912001546001600160a01b0316905081565b61175f6118f2565b6001600160a01b0316611770610feb565b6001600160a01b0316146117965760405162461bcd60e51b81526004016108f590612cb5565b6117a26012600061230d565b610b076012838361232b565b60185481565b6013818154811061173d57600080fd5b6001600160a01b03918216600090815260056020908152604080832093909416825291909152205460ff1690565b6117fa6118f2565b6001600160a01b031661180b610feb565b6001600160a01b0316146118315760405162461bcd60e51b81526004016108f590612cb5565b8051610e44906011906020840190612289565b61184c6118f2565b6001600160a01b031661185d610feb565b6001600160a01b0316146118835760405162461bcd60e51b81526004016108f590612cb5565b6001600160a01b0381166118a95760405162461bcd60e51b81526004016108f59061293a565b610c5781611b39565b60006001600160e01b031982166380ac58cd60e01b14806118e357506001600160e01b03198216635b5e139f60e01b145b806108ae57506108ae82611da5565b3390565b6000908152600260205260409020546001600160a01b0316151590565b600081815260046020526040902080546001600160a01b0319166001600160a01b038416908117909155819061194882610e51565b6001600160a01b03167f8c5be1e5ebec7d5bd14f71427d1e84f3dd0314c0f7b2291e5b200ac8c7c3b92560405160405180910390a45050565b600061198c826118f6565b6119a85760405162461bcd60e51b81526004016108f590612ac1565b60006119b383610e51565b9050806001600160a01b0316846001600160a01b031614806119da57506119da81856117c4565b806119fe5750836001600160a01b03166119f3846109a3565b6001600160a01b0316145b949350505050565b826001600160a01b0316611a1982610e51565b6001600160a01b031614611a3f5760405162461bcd60e51b81526004016108f5906129a6565b6001600160a01b038216611a655760405162461bcd60e51b81526004016108f590612a22565b611a70838383611dbe565b611a7b600082611913565b6001600160a01b0383166000908152600360205260408120805460019290611aa4908490612e77565b90915550506001600160a01b0382166000908152600360205260408120805460019290611ad2908490612e2c565b909155505060008181526002602052604080822080546001600160a01b0319166001600160a01b0386811691821790925591518493918716917fddf252ad1be2c89b69c2b068fc378daa952ba7f163c4a11628f55a4df523b3ef91a4610b07838383610b07565b600a80546001600160a01b038381166001600160a01b0319831681179093556040519116919082907f8be0079c531659141344cd1fd0a4f28419497f9722a3daafe3b4186f6b6457e090600090a35050565b610e44828260405180602001604052806000815250611e47565b816001600160a01b0316836001600160a01b03161415611bd75760405162461bcd60e51b81526004016108f590612a66565b6001600160a01b0383811660008181526005602090815260408083209487168084529490915290819020805460ff1916851515179055517f17307eab39ab6107e8899845ad3d59bd9653f200f220920489ca2b5937696c3190611c3b908590612827565b60405180910390a3505050565b611c53848484611a06565b611c5f84848484611e7a565b6113de5760405162461bcd60e51b81526004016108f5906128c7565b6060600b805461092090612eba565b606081611caf57506040805180820190915260018152600360fc1b60208201526108b1565b8160005b8115611cd95780611cc381612ef5565b9150611cd29050600a83612e44565b9150611cb3565b60008167ffffffffffffffff811115611d0257634e487b7160e01b600052604160045260246000fd5b6040519080825280601f01601f191660200182016040528015611d2c576020820181803683370190505b5090505b84156119fe57611d41600183612e77565b9150611d4e600a86612f10565b611d59906030612e2c565b60f81b818381518110611d7c57634e487b7160e01b600052603260045260246000fd5b60200101906001600160f81b031916908160001a905350611d9e600a86612e44565b9450611d30565b6001600160e01b031981166301ffc9a760e01b14919050565b611dc9838383610b07565b6001600160a01b038316611de557611de081611f95565b611e08565b816001600160a01b0316836001600160a01b031614611e0857611e088382611fd9565b6001600160a01b038216611e2457611e1f81612076565b610b07565b826001600160a01b0316826001600160a01b031614610b0757610b07828261214f565b611e518383612193565b611e5e6000848484611e7a565b610b075760405162461bcd60e51b81526004016108f5906128c7565b6000611e8e846001600160a01b031661227a565b15611f8a57836001600160a01b031663150b7a02611eaa6118f2565b8786866040518563ffffffff1660e01b8152600401611ecc94939291906127a6565b602060405180830381600087803b158015611ee657600080fd5b505af1925050508015611f16575060408051601f3d908101601f19168201909252611f1391810190612627565b60015b611f70573d808015611f44576040519150601f19603f3d011682016040523d82523d6000602084013e611f49565b606091505b508051611f685760405162461bcd60e51b81526004016108f5906128c7565b805181602001fd5b6001600160e01b031916630a85bd0160e11b1490506119fe565b506001949350505050565b600880546000838152600960205260408120829055600182018355919091527ff3f7a9fe364faab93b216da50a3214154f22a0a2b415b23a84c8169e8b636ee30155565b60006001611fe684610f0c565b611ff09190612e77565b600083815260076020526040902054909150808214612043576001600160a01b03841660009081526006602090815260408083208584528252808320548484528184208190558352600790915290208190555b5060009182526007602090815260408084208490556001600160a01b039094168352600681528383209183525290812055565b60085460009061208890600190612e77565b600083815260096020526040812054600880549394509092849081106120be57634e487b7160e01b600052603260045260246000fd5b9060005260206000200154905080600883815481106120ed57634e487b7160e01b600052603260045260246000fd5b600091825260208083209091019290925582815260099091526040808220849055858252812055600880548061213357634e487b7160e01b600052603160045260246000fd5b6001900381819060005260206000200160009055905550505050565b600061215a83610f0c565b6001600160a01b039093166000908152600660209081526040808320868452825280832085905593825260079052919091209190915550565b6001600160a01b0382166121b95760405162461bcd60e51b81526004016108f590612c34565b6121c2816118f6565b156121df5760405162461bcd60e51b81526004016108f5906129eb565b6121eb60008383611dbe565b6001600160a01b0382166000908152600360205260408120805460019290612214908490612e2c565b909155505060008181526002602052604080822080546001600160a01b0319166001600160a01b03861690811790915590518392907fddf252ad1be2c89b69c2b068fc378daa952ba7f163c4a11628f55a4df523b3ef908290a4610e4460008383610b07565b6001600160a01b03163b151590565b82805461229590612eba565b90600052602060002090601f0160209004810192826122b757600085556122fd565b82601f106122d057805160ff19168380011785556122fd565b828001600101855582156122fd579182015b828111156122fd5782518255916020019190600101906122e2565b5061230992915061237e565b5090565b5080546000825590600052602060002090810190610c57919061237e565b8280548282559060005260206000209081019282156122fd579160200282015b828111156122fd5781546001600160a01b0319166001600160a01b0384351617825560209092019160019091019061234b565b5b80821115612309576000815560010161237f565b600067ffffffffffffffff808411156123ae576123ae612f50565b604051601f8501601f19908116603f011681019082821181831017156123d6576123d6612f50565b816040528093508581528686860111156123ef57600080fd5b858560208301376000602087830101525050509392505050565b80356001600160a01b03811681146108b157600080fd5b803580151581146108b157600080fd5b600060208284031215612441578081fd5b6116ce82612409565b6000806040838503121561245c578081fd5b61246583612409565b915061247360208401612409565b90509250929050565b600080600060608486031215612490578081fd5b61249984612409565b92506124a760208501612409565b9150604084013590509250925092565b600080600080608085870312156124cc578081fd5b6124d585612409565b93506124e360208601612409565b925060408501359150606085013567ffffffffffffffff811115612505578182fd5b8501601f81018713612515578182fd5b61252487823560208401612393565b91505092959194509250565b60008060408385031215612542578182fd5b61254b83612409565b915061247360208401612420565b6000806040838503121561256b578182fd5b61257483612409565b946020939093013593505050565b60008060208385031215612594578182fd5b823567ffffffffffffffff808211156125ab578384fd5b818501915085601f8301126125be578384fd5b8135818111156125cc578485fd5b86602080830285010111156125df578485fd5b60209290920196919550909350505050565b600060208284031215612602578081fd5b6116ce82612420565b60006020828403121561261c578081fd5b81356116ce81612f66565b600060208284031215612638578081fd5b81516116ce81612f66565b600060208284031215612654578081fd5b813567ffffffffffffffff81111561266a578182fd5b8201601f8101841361267a578182fd5b6119fe84823560208401612393565b60006020828403121561269a578081fd5b5035919050565b600081518084526126b9816020860160208601612e8e565b601f01601f19169290920160200192915050565b6000845160206126e08285838a01612e8e565b8551918401916126f38184848a01612e8e565b855492019183906002810460018083168061270f57607f831692505b85831081141561272d57634e487b7160e01b88526022600452602488fd5b80801561274157600181146127525761277e565b60ff1985168852838801955061277e565b61275b8b612e20565b895b858110156127765781548a82015290840190880161275d565b505083880195505b50939b9a5050505050505050505050565b90565b6001600160a01b0391909116815260200190565b6001600160a01b03858116825284166020820152604081018390526080606082018190526000906127d9908301846126a1565b9695505050505050565b6020808252825182820181905260009190848201906040850190845b8181101561281b578351835292840192918401916001016127ff565b50909695505050505050565b901515815260200190565b6000602082526116ce60208301846126a1565b6020808252601c908201527f75736572206973206e6f742077686974656c697374656420696e204f00000000604082015260600190565b6020808252602b908201527f455243373231456e756d657261626c653a206f776e657220696e646578206f7560408201526a74206f6620626f756e647360a81b606082015260800190565b60208082526032908201527f4552433732313a207472616e7366657220746f206e6f6e20455243373231526560408201527131b2b4bb32b91034b6b83632b6b2b73a32b960711b606082015260800190565b6020808252600790820152661c185e5b595b9d60ca1b604082015260600190565b60208082526026908201527f4f776e61626c653a206e6577206f776e657220697320746865207a65726f206160408201526564647265737360d01b606082015260800190565b6020808252600c908201526b1b1a5b5a5d08195e18d9595960a21b604082015260600190565b60208082526025908201527f4552433732313a207472616e736665722066726f6d20696e636f72726563742060408201526437bbb732b960d91b606082015260800190565b6020808252601c908201527f4552433732313a20746f6b656e20616c7265616479206d696e74656400000000604082015260600190565b60208082526024908201527f4552433732313a207472616e7366657220746f20746865207a65726f206164646040820152637265737360e01b606082015260800190565b60208082526019908201527f4552433732313a20617070726f766520746f2063616c6c657200000000000000604082015260600190565b6020808252600a90820152697768792075206865726560b01b604082015260600190565b6020808252602c908201527f4552433732313a206f70657261746f7220717565727920666f72206e6f6e657860408201526b34b9ba32b73a103a37b5b2b760a11b606082015260800190565b6020808252601c908201527f75736572206973206e6f742077686974656c697374656420696e204c00000000604082015260600190565b60208082526038908201527f4552433732313a20617070726f76652063616c6c6572206973206e6f74206f7760408201527f6e6572206e6f7220617070726f76656420666f7220616c6c0000000000000000606082015260800190565b6020808252602a908201527f4552433732313a2062616c616e636520717565727920666f7220746865207a65604082015269726f206164647265737360b01b606082015260800190565b60208082526029908201527f4552433732313a206f776e657220717565727920666f72206e6f6e657869737460408201526832b73a103a37b5b2b760b91b606082015260800190565b6020808252818101527f4552433732313a206d696e7420746f20746865207a65726f2061646472657373604082015260600190565b6020808252602c908201527f4552433732313a20617070726f76656420717565727920666f72206e6f6e657860408201526b34b9ba32b73a103a37b5b2b760a11b606082015260800190565b6020808252818101527f4f776e61626c653a2063616c6c6572206973206e6f7420746865206f776e6572604082015260600190565b6020808252602f908201527f4552433732314d657461646174613a2055524920717565727920666f72206e6f60408201526e3732bc34b9ba32b73a103a37b5b2b760891b606082015260800190565b60208082526021908201527f4552433732313a20617070726f76616c20746f2063757272656e74206f776e656040820152603960f91b606082015260800190565b60208082526031908201527f4552433732313a207472616e736665722063616c6c6572206973206e6f74206f6040820152701ddb995c881b9bdc88185c1c1c9bdd9959607a1b606082015260800190565b6020808252602c908201527f455243373231456e756d657261626c653a20676c6f62616c20696e646578206f60408201526b7574206f6620626f756e647360a01b606082015260800190565b90815260200190565b60009081526020902090565b60008219821115612e3f57612e3f612f24565b500190565b600082612e5357612e53612f3a565b500490565b6000816000190483118215151615612e7257612e72612f24565b500290565b600082821015612e8957612e89612f24565b500390565b60005b83811015612ea9578181015183820152602001612e91565b838111156113de5750506000910152565b600281046001821680612ece57607f821691505b60208210811415612eef57634e487b7160e01b600052602260045260246000fd5b50919050565b6000600019821415612f0957612f09612f24565b5060010190565b600082612f1f57612f1f612f3a565b500690565b634e487b7160e01b600052601160045260246000fd5b634e487b7160e01b600052601260045260246000fd5b634e487b7160e01b600052604160045260246000fd5b6001600160e01b031981168114610c5757600080fdfea2646970667358221220a0a3125376dd693c2ef3fae77bccc20efc3384341522a5983576d7faf08782d764736f6c63430008010033",
  "immutableReferences": {},
  "source": "//SPDX-License-Identifier: GPL-3.0\r\n\r\n\r\npragma solidity >=0.7.0 <0.9.0;\r\n\r\nimport \"@openzeppelin/contracts/token/ERC721/extensions/ERC721Enumerable.sol\";\r\nimport \"@openzeppelin/contracts/access/Ownable.sol\";\r\n// import \"hardhat/console.sol\";\r\n\r\ncontract SmartContract is ERC721Enumerable, Ownable {\r\n  using Strings for uint256;\r\n\r\n  string public baseURI;\r\n  string public baseExtension = \".json\";\r\n  uint256 public cost = 0.000003 ether;\r\n  uint256 public maxSupply = 3333;\r\n  uint256 public maxMintAmount = 3;\r\n  bool public paused = false;\r\n  bool public revealed = false;\r\n  string public notRevealedUri;\r\n  address[] public whitelistedAddressesO;\r\n  address[] public whitelistedAddressesL;\r\n  bool public onlyWhiteListed=true;\r\n  uint256 public nftPerAddressLimitFreeO=3;//whitelist\r\n  uint256 public nftPerAddressLimitFreeL=2;\r\n  uint256 public nftPerAddressLimitO=3;\r\n  uint256 public nftPerAddressLimitL=3;\r\n  uint256 public nftPerAddressLimitFreePublic=1;\r\n  uint256 public nftPerAddressLimitPublic=3;\r\n//   mapping(address => bool) public whitelisted;\r\n\r\n  constructor(\r\n    string memory _name,\r\n    string memory _symbol,\r\n    string memory _initBaseURI,\r\n    string memory _initNotRevealedUri\r\n  ) ERC721(_name, _symbol) {\r\n    setBaseURI(_initBaseURI);\r\n    setNotRevealedURI(_initNotRevealedUri);\r\n    // mint(msg.sender, 20);\r\n  }\r\n\r\n  // internal\r\n  function _baseURI() internal view virtual override returns (string memory) {\r\n    return baseURI;\r\n  }\r\n\r\n  // public\r\n  function mint(uint256 _mintAmount) public payable {\r\n    require(!paused);\r\n    uint256 supply = totalSupply();\r\n    require(_mintAmount > 0);\r\n    require(_mintAmount <= maxMintAmount);\r\n    require(supply + _mintAmount <= maxSupply);\r\n    require(balanceOf(msg.sender)+_mintAmount<=maxMintAmount);\r\n   \r\n\r\n    if(onlyWhiteListed==true){\r\n\r\n        if(isWhiteListedO(msg.sender)){\r\n            require(isWhiteListedO(msg.sender),\"user is not whitelisted in O\");\r\n            uint256 ownerTokenCount=balanceOf(msg.sender);\r\n            require(ownerTokenCount<nftPerAddressLimitO);\r\n            uint256 freeMintAvailable=nftPerAddressLimitFreeO-ownerTokenCount;\r\n            if(_mintAmount<=freeMintAvailable){\r\n\r\n                  for (uint256 i = 1; i <= _mintAmount; i++) {\r\n                    _safeMint(msg.sender, supply + i);\r\n                }\r\n            }\r\n            else{\r\n                for (uint256 i = 1; i <= freeMintAvailable; i++) {\r\n                    _safeMint(msg.sender, supply + i);\r\n                }\r\n                uint256 ownerTokenCountNewBalance=balanceOf(msg.sender);\r\n                uint256 paidMint=nftPerAddressLimitO-ownerTokenCountNewBalance;\r\n                require(msg.value>=paidMint*cost);\r\n                for (uint256 i = 1; i <= paidMint; i++) {\r\n                    _safeMint(msg.sender, supply + i);\r\n                }  \r\n            }\r\n        }\r\n        else if(isWhiteListedL(msg.sender)){\r\n            \r\n            require(isWhiteListedL(msg.sender),\"user is not whitelisted in L\");\r\n            uint256 ownerTokenCount=balanceOf(msg.sender);\r\n            require(ownerTokenCount<nftPerAddressLimitL,\"limit exceed\");\r\n            uint256 freeMintAvailable=nftPerAddressLimitFreeL-ownerTokenCount;\r\n            if(_mintAmount<=freeMintAvailable){\r\n\r\n                  for (uint256 i = 1; i <= _mintAmount; i++) {\r\n                    _safeMint(msg.sender, supply + i);\r\n                }\r\n            }\r\n            else{\r\n                uint256 paidMintCheck=_mintAmount-freeMintAvailable;\r\n                require(msg.value>=paidMintCheck*cost,\"payment\");\r\n                 for (uint256 i = 1; i <= _mintAmount; i++) {\r\n                    _safeMint(msg.sender, supply + i);\r\n                }\r\n                // for (uint256 i = 1; i <= freeMintAvailable; i++) {\r\n                //     _safeMint(msg.sender, supply + i);\r\n                // }\r\n                // console.log(\"minted completely\");\r\n                // uint256 ownerTokenCountNewBalance=balanceOf(msg.sender);\r\n                // uint256 paidMint=nftPerAddressLimitL-ownerTokenCountNewBalance;\r\n                // // require(msg.value>=paidMint*cost,\"payment\");\r\n                // for (uint256 i = 1; i <= paidMint; i++) {\r\n                //     _safeMint(msg.sender, supply + i);\r\n                // }  \r\n                // console.log(\"minted completely2\");\r\n            }\r\n        }\r\n        else{\r\n            require(false,\"why u here\");\r\n        }\r\n        // else{\r\n        //     uint256 ownerTokenCount=balanceOf(msg.sender);\r\n        //     require(ownerTokenCount<nftPerAddressLimit);\r\n        //     require(msg.value >= cost * _mintAmount);\r\n        // }\r\n       \r\n        \r\n    }\r\n    else{\r\n            // console.log(\"in public mint\");\r\n            uint256 ownerTokenCount=balanceOf(msg.sender);\r\n            require(ownerTokenCount<nftPerAddressLimitPublic,\"limit exceed\");\r\n            // console.log(\"after condition\");\r\n            // uint256 freeMintAvailable=nftPerAddressLimitFreePublic-ownerTokenCount;\r\n            uint256 freeMintAvailable=nftPerAddressLimitFreePublic>ownerTokenCount?nftPerAddressLimitFreePublic-ownerTokenCount:0;\r\n            //  console.log(\"freeMintAvailable\",freeMintAvailable);\r\n            // console.log(\"before free mint\");\r\n            if(_mintAmount<=freeMintAvailable){\r\n                  //  console.log(\"in free mint\");\r\n                  for (uint256 i = 1; i <= _mintAmount; i++) {\r\n                    _safeMint(msg.sender, supply + i);\r\n                }\r\n            }\r\n            else{\r\n              //  console.log(\"before paid mint\");\r\n                uint256 paidMintCheck=_mintAmount-freeMintAvailable;\r\n                // console.log(\"paid mint\",paidMintCheck);\r\n                require(msg.value>=paidMintCheck*cost,\"payment\");\r\n                 for (uint256 i = 1; i <= _mintAmount; i++) {\r\n                    _safeMint(msg.sender, supply + i);\r\n                }\r\n                // console.log(\"after paid mint\");\r\n            }\r\n            // console.log(\"out\");\r\n            // for (uint256 i = 1; i <= _mintAmount; i++) {\r\n            //     _safeMint(msg.sender, supply + i);\r\n            // }\r\n    }\r\n   \r\n    \r\n\r\n    \r\n  }\r\n\r\n    function isWhiteListedO(address _user)public view returns(bool){\r\n        for(uint256 i=0;i<whitelistedAddressesO.length;i++){\r\n            if(whitelistedAddressesO[i]==_user){\r\n                return true;\r\n            }\r\n        }\r\n        return false;\r\n    }\r\n    function isWhiteListedL(address _user)public view returns(bool){\r\n        for(uint256 i=0;i<whitelistedAddressesL.length;i++){\r\n            if(whitelistedAddressesL[i]==_user){\r\n                return true;\r\n            }\r\n        }\r\n        return false;\r\n    }\r\n\r\n  function walletOfOwner(address _owner)\r\n    public\r\n    view\r\n    returns (uint256[] memory)\r\n  {\r\n    uint256 ownerTokenCount = balanceOf(_owner);\r\n    uint256[] memory tokenIds = new uint256[](ownerTokenCount);\r\n    for (uint256 i; i < ownerTokenCount; i++) {\r\n      tokenIds[i] = tokenOfOwnerByIndex(_owner, i);\r\n    }\r\n    return tokenIds;\r\n  }\r\n\r\n  function tokenURI(uint256 tokenId)\r\n    public\r\n    view\r\n    virtual\r\n    override\r\n    returns (string memory)\r\n  {\r\n    require(\r\n      _exists(tokenId),\r\n      \"ERC721Metadata: URI query for nonexistent token\"\r\n    );\r\n    \r\n    if(revealed == false) {\r\n        return notRevealedUri;\r\n    }\r\n\r\n    string memory currentBaseURI = _baseURI();\r\n    return bytes(currentBaseURI).length > 0\r\n        ? string(abi.encodePacked(currentBaseURI, tokenId.toString(), baseExtension))\r\n        : \"\";\r\n  }\r\n\r\n  //only owner\r\n  function reveal() public onlyOwner {\r\n      revealed = true;\r\n  }\r\n  \r\n  function setCost(uint256 _newCost) public onlyOwner {\r\n    cost = _newCost;\r\n  }\r\n//     function setNftPerAddressLimit(uint256 _limit) public onlyOwner {\r\n//     nftPerAddressLimit = _limit;\r\n//   }\r\n  function setmaxMintAmount(uint256 _newmaxMintAmount) public onlyOwner {\r\n    maxMintAmount = _newmaxMintAmount;\r\n  }\r\n  \r\n  function setNotRevealedURI(string memory _notRevealedURI) public onlyOwner {\r\n    notRevealedUri = _notRevealedURI;\r\n  }\r\n\r\n  function setBaseURI(string memory _newBaseURI) public onlyOwner {\r\n    baseURI = _newBaseURI;\r\n  }\r\n\r\n  function setBaseExtension(string memory _newBaseExtension) public onlyOwner {\r\n    baseExtension = _newBaseExtension;\r\n  }\r\n\r\n  function pause(bool _state) public onlyOwner {\r\n    paused = _state;\r\n  }\r\n    function setOnlyWhiteListed(bool _state) public onlyOwner {\r\n    onlyWhiteListed=_state;\r\n  }\r\n function whitelistUsersO(address[] calldata _user) public onlyOwner {\r\n    delete whitelistedAddressesO;\r\n    whitelistedAddressesO=_user;\r\n  }\r\n   function whitelistUsersl(address[] calldata _user) public onlyOwner {\r\n    delete whitelistedAddressesL;\r\n    whitelistedAddressesL=_user;\r\n  }\r\n \r\n\r\n  function withdraw() public payable onlyOwner {\r\n    // This will pay HashLips 5% of the initial sale.\r\n    // You can remove this if you want, or keep it in to support HashLips and his channel.\r\n    // =============================================================================\r\n    // (bool hs, ) = payable(0x943590A42C27D08e3744202c4Ae5eD55c2dE240D).call{value: address(this).balance * 5 / 100}(\"\");\r\n    // require(hs);\r\n    // =============================================================================\r\n    \r\n    // This will payout the owner 95% of the contract balance.\r\n    // Do not remove this otherwise you will not be able to withdraw the funds.\r\n    // =============================================================================\r\n    (bool os, ) = payable(owner()).call{value: address(this).balance}(\"\");\r\n    require(os);\r\n    // =============================================================================\r\n  }\r\n}\r\n\r\n// [\"0xAb8483F64d9C6d1EcF9b849Ae677dD3315835cb2\",\"0x4B20993Bc481177ec7E8f571ceCaE8A9e22C02db\"]\r\n",
  "sourcePath": "C:\\Users\\Abdullah Tilal\\Desktop\\SMART CONTRACT\\MINTING DAPP\\front end final dapp\\frontend_base_dapp\\contracts\\SmartContract.sol",
  "compiler": {
    "name": "solc",
    "version": "0.8.1+commit.df193b15.Emscripten.clang"
  },
  "schemaVersion": "3.4.7",
  "updatedAt": "2022-07-14T09:09:01.344Z",
  "devdoc": {
    "kind": "dev",
    "methods": {
      "approve(address,uint256)": {
        "details": "See {IERC721-approve}."
      },
      "balanceOf(address)": {
        "details": "See {IERC721-balanceOf}."
      },
      "getApproved(uint256)": {
        "details": "See {IERC721-getApproved}."
      },
      "isApprovedForAll(address,address)": {
        "details": "See {IERC721-isApprovedForAll}."
      },
      "name()": {
        "details": "See {IERC721Metadata-name}."
      },
      "owner()": {
        "details": "Returns the address of the current owner."
      },
      "ownerOf(uint256)": {
        "details": "See {IERC721-ownerOf}."
      },
      "renounceOwnership()": {
        "details": "Leaves the contract without owner. It will not be possible to call `onlyOwner` functions anymore. Can only be called by the current owner. NOTE: Renouncing ownership will leave the contract without an owner, thereby removing any functionality that is only available to the owner."
      },
      "safeTransferFrom(address,address,uint256)": {
        "details": "See {IERC721-safeTransferFrom}."
      },
      "safeTransferFrom(address,address,uint256,bytes)": {
        "details": "See {IERC721-safeTransferFrom}."
      },
      "setApprovalForAll(address,bool)": {
        "details": "See {IERC721-setApprovalForAll}."
      },
      "supportsInterface(bytes4)": {
        "details": "See {IERC165-supportsInterface}."
      },
      "symbol()": {
        "details": "See {IERC721Metadata-symbol}."
      },
      "tokenByIndex(uint256)": {
        "details": "See {IERC721Enumerable-tokenByIndex}."
      },
      "tokenOfOwnerByIndex(address,uint256)": {
        "details": "See {IERC721Enumerable-tokenOfOwnerByIndex}."
      },
      "tokenURI(uint256)": {
        "details": "See {IERC721Metadata-tokenURI}."
      },
      "totalSupply()": {
        "details": "See {IERC721Enumerable-totalSupply}."
      },
      "transferFrom(address,address,uint256)": {
        "details": "See {IERC721-transferFrom}."
      },
      "transferOwnership(address)": {
        "details": "Transfers ownership of the contract to a new account (`newOwner`). Can only be called by the current owner."
      }
    },
    "version": 1
  },
  "userdoc": {
    "kind": "user",
    "methods": {},
    "version": 1
  }
}